:020000040800F2
:1000000008080020650200087D210008D1190008B9
:100010007921000859060008552300080000000057
:100020000000000000000000000000008521000822
:100030005D060008000000008121000889210008F9
:100040007F0200087F0200087F0200087F0200088C
:100050007F0200087F0200087F0200087F0200087C
:100060007F0200087F0200087F0200087F0200086C
:100070007F0200087F0200087F0200087F0200085C
:100080007F0200087F0200087F02000800000000D5
:100090000000000000000000000000007F020008D7
:1000A0007F0200087F0200087F0200087F0200082C
:1000B0007F0200087F0200087F0200087F0200081C
:1000C0007F0200087F0200087F0200087F0200080C
:1000D0007F0200087F0200087F0200080000000085
:1000E0007F0200087F0200087F0200080000000075
:1000F0000000000000000000000000007F02000877
:10010000000000007F0200087F0200087F02000854
:1001100000000000000000000000000000000000DF
:100120007F0200087F0200087F0200087F020008AB
:100130007F02000800000000000000000000000036
:100140000000000000000000000000007F02000826
:100150007F0200087F0200087F0200087F0200087B
:100160007F0200087F02000800000000000000007D
:10017000000000000000000000000000000000007F
:10018000000000007F0200080000000000000000E6
:100190007F02000800F002F800F055F814A696E877
:1001A000000CB244B344DA4501D100F04CF8BAE88F
:1001B0000F000FA696E83000A5EB040504EB060738
:1001C000AAEB0704A7F101074FEA15154FEA34140B
:1001D000A4F10104AC4201D300F035F813F0010F93
:1001E00018BFFB1A43F0010300F001F8DBE71847E2
:1001F000E02F000000300000103A24BF78C878C11A
:10020000FAD8520724BF30C830C144BF04680C601C
:1002100070470000704700000023002400250026DE
:10022000103A28BF78C1FBD8520728BF30C148BF59
:100230000B607047642900F0F780002070471FB5FD
:100240001FBD10B510BD00F0CCF91146FFF7F7FF48
:1002500002F096F900F0EAF903B4FFF7F2FF03BCED
:1002600000F0F2F90948804709480047FEE7FEE739
:10027000FEE7FEE7FEE7FEE7FEE7FEE7FEE7FEE756
:1002800004480549054A064B704700008D210008C7
:10029000950100080802002008080020080400203A
:1002A0000804002053EA020C00F069802DE9F04BAD
:1002B0004FF00006002B1FBFB3FA83F503FA05F4D5
:1002C00024FA05F65E4012BF1643B2FA82F502FA2E
:1002D00005F4C5F120051EBF22FA05FC44EA0C0412
:1002E000203556EA044C4FEA144418BF641C4FF002
:1002F00000084FF00009904271EB030C39D300293C
:1003000019BFB1FA81F701FA07F6B0FA80F700FADF
:1003100007F6C7F120071EBF20FA07FC46EA0C06C5
:100320002037B6FBF4FCA7EB0507103F07F01F0BC7
:10033000CBF120062CFA06F60CFA0BFB44BFB346B1
:100340000026202FA4BF5E464FF0000B5BEA060C90
:1003500008BF4FF0010B19EB0B0948EB0608ABFB8C
:10036000027C06FB02CC0BFB03CCC01B71EB0C0127
:10037000C1E70B46024641464846BDE8F08B13B53F
:10038000084318BF4FF0FF300146AFF30080BDE8CF
:100390001C4070470FB41CB5084B06AA7B44694645
:1003A0000090059800F005F904460020694600F029
:1003B00013F920461CBC5DF814FB00003902000054
:1003C0002DE9F0410E460446002020622046E168F7
:1003D000884730B3252805D0D4E901219047206A09
:1003E000401CF2E7E168204600278847050018D046
:1003F000A5F14100192802D820354FF40067324694
:10040000294620462760FFF715FF40B1012804D098
:10041000F61D26F007060836D8E7361DD6E728462B
:10042000DAE7206ABDE8F0812DE9F04106460024B4
:1004300010687529314616A510D0AFF3008000284A
:1004400002DA404213A507E031688A0701D512A5F8
:1004500002E0490704D511A5012401E0AFF30080B3
:1004600000210A2206F1240709E0B0FBF2FCB0FBF0
:10047000F2F302FB1C00303078541846491C002867
:10048000F3D123462A463046BDE8F04100F032B8A9
:10049000000000002D0000002B00000020000000E4
:1004A0004FF0000200B5134694469646203922BF0D
:1004B000A0E80C50A0E80C50B1F12001BFF4F7AF58
:1004C000090728BFA0E80C5048BF0CC05DF804EB3A
:1004D000890028BF40F8042B08BF704748BF20F8A8
:1004E000022B11F0804F18BF00F8012B70477047A6
:1004F000704770472DE9F0470D46994692460446ED
:1005000000F124080168880604D5E06921F0100193
:10051000216000E00120A84201DD471B00E0002728
:10052000A1697A1902EB0900081AA0612078C006B7
:1005300002D42046AFF30080002608E0D4E9012170
:100540001AF806009047206A401C761C20624E452F
:10055000F4DB2078C0060AD52046AFF3008006E021
:10056000D4E9012130209047206A401C2062381EC7
:10057000A7F10107F4DC07E0D4E9012118F8050030
:100580009047206A401C2062281EA5F10105F3DC7B
:100590002046AFF300802078000602D50220BDE897
:1005A000F0870120FBE7000001694A1C026108781E
:1005B000704700B58FB0CDE90131002105910549A3
:1005C0007944CDE9031011466846FFF7F9FE0FB0F4
:1005D00000BD0000E5FFFFFF0A6802F8010B0A609A
:1005E0007047754600F02CF8AE4605006946534644
:1005F00020F00700854618B020B5FFF741FEBDE8A2
:1006000020404FF000064FF000074FF000084FF079
:10061000000BAC46ACE8C009ACE8C009ACE8C009C6
:10062000ACE8C00921F007018D46704710B50446BB
:10063000AFF300802046BDE81040FFF70DBE00007C
:10064000004870472000002001491820ABBEFEE79B
:100650002600020070470000FEE70000704700001F
:100660002DE9F04387B0002743F630000697CDE927
:100670000477CDE902770197C4F2020001680025F2
:1006800041F0010101600168C4F2020501F00101BD
:10069000019101990197016802AC41F002010160EA
:1006A00001684FF0030801F00201019101990197DF
:1006B000016841F0040101600068214600F0040077
:1006C000019001982846CDE90288049700F0C0FA0D
:1006D000042002900220CDE9030707262846214680
:1006E0000597069600F0B4FA0820029028462146A5
:1006F000069600F0ADFA4FF4807002904FF00109B9
:1007000028462146CDF8189000F0A2FA062005F5FB
:100710008066CDE9020930462146059700F098FA37
:100720004FF42040CDE9020905F500602146CDE9EE
:10073000047700F08DFA4FF4407002901120CDE95B
:10074000030930462146CDF8148000F081FA07B045
:10075000BDE8F083B0B581B00022009290F83C2053
:10076000012A02D1022001B0B0BDD1F800E001227F
:10077000BEF10A0F80F83C200ED31FFA8EF2520011
:10078000036812FA8EF21E3A4FF0070C53F80C5F12
:100790000CFA02F4A54308E003680EEB4E020725AD
:1007A00053F8104F954024EA05051D608D6805FA41
:1007B00002F21D682A431A604A68062A0ED802EB24
:1007C00082014A1F01681F2351F8345F934025EAD4
:1007D00003030B601FFA8EF3934014E0016802EBF1
:1007E00082030C2A1FFA8EF203D851F8304F233BB4
:1007F00002E051F82C4F413B1F259D4024EA05059E
:1008000002FA03F30D600A6842F2043C1A430A60DC
:10081000C4F2010C0168BEF1120FACF5417308BFC0
:10082000994205D1DCF8002042F48002CCF8002087
:100830002EF00102102A08BF994205D0002180F84D
:100840003C10002001B0B0BDDCF80010BEF1100F6C
:1008500041F40001CCF80010F0D140F20C01C2F2DA
:10086000000109684DF68362C4F21B32A1FB02123B
:10087000910C01EB81014900009100990029DDD024
:1008800000990139F8E700000068C06C704700006B
:10089000002804BF0120704710B5016C39B9044627
:1008A00000F0A0F820460021616484F83C10016C3F
:1008B000C9063AD4016C41F202129143023142F26C
:1008C00004320164C4F20102116821F44031116064
:1008D000136890E812102343D0F810E013604A68C0
:1008E000012422F480724A604A68C0F6007442EA29
:1008F0000E224A604A6822F040724A604A6842EA20
:100900000C024A608A6822F400628A60C2688B68BE
:100910001A438A60826A8B68A24223F070638B60FC
:100920008B6804D123F040520AE0012152E01A43BF
:100930008A608A6822F040528A60C26A8B681A43D1
:100940008A608A6822F002028A608A68037E90F8D0
:10095000204042EA43028A604A6884B142F400625D
:100960004A604A684EF2000322F460424A60426ADA
:10097000CFF6FF734C6803EB4232224301E022F4CE
:1009800000624A60CA6A40F2000C22F47002CA6235
:10099000C3694269CFF6F07CCC6A0CEB0353234366
:1009A000CB628B6823F400738B6090F830308C68D6
:1009B00044EA43238B608B6823F480638B608B68ED
:1009C00043EA82228A6000214164026C012363F3BE
:1009D00001020264002280F83C20BDE81040084675
:1009E0007047000080B586B042F200010068C4F292
:1009F0000101002288420592CDE903220292019270
:100A000001D006B080BD43F630000092C4F202006F
:100A1000436943F480734361436903F48073009333
:100A2000009B0092036843F001030360006800F03C
:100A30000100009000980320CDE9010001F560401D
:100A400001A9039200F004F906B080BDF0B581B0B1
:100A5000044600680D468268520544BF80685FEA1C
:100A6000C0502BD400F0C4F921680A68920715D44D
:100A700006466F1C08E000BF20680068800727D585
:100A800021680868800709D4002FF9D0002DF3D021
:100A900000F0AEF9801BA842EED8F1E76FF012002B
:100AA0000860206C40F400702064886810F0405F9B
:100AB00001D1207EB0B1002001B0F0BD206C40F02B
:100AC00020002064002084F83C00012001B0F0BD2B
:100AD000206C40F004002064002084F83C000320D7
:100AE00001B0F0BDC86A10F4700F02D088684005EC
:100AF000E1D4206C20F480702064206CC004DAD42F
:100B0000206C40F001002064D5E7000010B581B0F2
:100B10000021009190F83C10012902D1022001B07F
:100B200010BD0468012180F83C10214651F8083FAF
:100B3000DB0717D10B684DF6836243F001030B60AE
:100B400040F20C03C2F200031B68C4F21B32A3FB89
:100B500002239A0C02EB42020092009A12B1009A10
:100B6000013AF9E70A68036CD20709D143F0100192
:100B7000016400F1440101200A681043086033E079
:100B800040F2017223EA020202F580720264626896
:100B9000520504D5026C012363F30D320264026C2A
:100BA0004FF0000C0023D20444BF426C22F0060335
:100BB00042F2000E436480F83CC06FF02200C4F2A1
:100BC000010E2060DEF80403C00609D074450BD185
:100BD000DEF8080010F0405F06D14FF08040CBE710
:100BE000086810F0405FF8D0002001B010BD000090
:100BF00090F83C10012904BF0220704701210268CF
:100C000080F83C10916821F0010191609168C9075A
:100C100005D1016C41F201129143013101640021BF
:100C200080F83C1000207047B0B5044600F0E0F8B2
:100C3000054640F21400C2F200000078611C18BFA3
:100C4000044400BF00F0D4F8401BA042FAD3B0BD6A
:100C50002DE9F04F83B000F1200200F13E4741F250
:100C60000005009207F1FF77C4F2020507224FEA60
:100C7000B726A84208BF0422042E38BF4FEAB72285
:100C800000274FF0000A4FF0000801920AE000BF71
:100C900008F101080AF1020AB8F1100F07F1040780
:100CA00000F09D800D68012202FA08FC15EA0C098B
:100CB000EED04D68032205F0030BABF10106012EC7
:100CC00002FA0AFE10D88668CC6826EA0E0604FAF4
:100CD0000AF4344384604468C5F3001524EA0C0622
:100CE00005FA08F52E434660BBF1030F1BD0C6681A
:100CF0008D6826EA0E0605FA0AF52E43BBF1020FAF
:100D0000C66010D16FF00302009D02EA580655F844
:100D100006C007F01C040F220B69A2402CEA020255
:100D2000A3401A43AA5102684B6822EA0E0203F05C
:100D3000030606FA0AF6324313F4403F0260A7D0D6
:100D4000002243F644030292C4F202031A6843F6F7
:100D5000004442F480421A601A68C4F2010402F4AA
:100D600080420292029A28F003024FF6084C224475
:100D7000CFF6FF7C52F80C3007F00C060F25B5407B
:100D8000AB43019D05FA06F6334342F80C30A268E6
:100D90004B6842EA090643F60C4CDD0258BF22EAD2
:100DA0000906A660C4F2010CDCF800209D0242EAAC
:100DB000090658BF22EA0906CCF8006062689D0364
:100DC00042EA090658BF22EA090666602268DB0388
:100DD00042EA090658BF22EA0906266058E703B02E
:100DE000BDE8F08F002A08BF090481617047000048
:100DF00040F20420C2F200000068704740F2140084
:100E000040F20421C2F20000C2F2000100780A6838
:100E1000104408607047000080B543F60040C4F2FB
:100E20000200016841F400710160016841F48061D1
:100E30000160016841F480710160032000F078F8DE
:100E40000F2000F005F800F02BF8002080BD000016
:100E5000B0B540F21402C2F2000240F20C01127866
:100E6000C2F200014FF47A730968B3FBF2F2044650
:100E7000B1FBF2F1084600F027FB0F2C4FF0010503
:100E80000CD858B94FF0FF3021460022002500F061
:100E900023F840F21800C2F2000004602846B0BDFA
:100EA00082B0002043F640010190C4F202014A687A
:100EB00042F480424A604A6802F480420192019AF8
:100EC0000090086840F080500860086800F080508A
:100ED0000090009802B0704710B54EF60C5CCEF250
:100EE000000CDCF80030C3F3022E8EF00704042C53
:100EF00028BF0424BEF103034FF0FF3E0EFA04F4B2
:100F000038BF0023A14399400EFA03F39A431143DB
:100F100000F1604200F00F03090102F56442043B56
:100F20006344002848BF03F10C02117010BD00009B
:100F30004EF60C51CEF200010A684FF6FF031A403C
:100F400060F30A2242F0806040F0FD700860704754
:100F5000002804BF012070472DE9F04143F608083E
:100F6000C4F202080446D8F8F8030D4600F0070062
:100F7000814207D988F8F853D8F8F80300F0070041
:100F8000A84276D12068810717D5410705D5D8F842
:100F9000001041F4E051C8F80010010705D5D8F859
:100FA000001041F46041C8F80010D8F80010A268A1
:100FB00021F0F0011143C8F80010C0073FD1D8F864
:100FC000F80300F00700854207D288F8F853D8F8F4
:100FD000F80300F00700A8424BD12068410707D56D
:100FE000D8F80010E26821F4E0511143C8F800106D
:100FF000000708D5D8F80000216920F4604040EAD5
:10100000C100C8F8000000F07BF8D8F8001043F2E7
:10101000B612C1F30311C0F60002515C40F20C029B
:1010200020FA01F140F21800C2F200000068C2F29A
:1010300000021160FFF70CFF0020BDE8F08160683E
:10104000811E022907D258F8081C89015CBF0120C3
:10105000BDE8F08110E0012807D158F8081C890389
:101060005CBF0120BDE8F08106E058F8081C890744
:1010700002D40120BDE8F081D8F8001021F003016E
:101080000843C8F80000FFF7B3FE064641F2883770
:10109000D8F80000616800F00C00B0EB810F8ED032
:1010A000FFF7A6FE801BB842F2D90320BDE8F0810D
:1010B00040F20C0043F60801C2F20000C4F2020143
:1010C0000068096843F2C612C1F38221C0F600022B
:1010D000515CC8407047000040F20C0043F6080124
:1010E000C2F20000C4F202010068096843F2C612AD
:1010F000C1F34231C0F60002515CC84070470000A5
:1011000010B543F60404C4F202046168C1F381011E
:1011100042F20040C0F2F400DFE801F002030802EE
:1011200010BD47F64000C0F27D1010BD2068216858
:101130002368490247F64001C0F27D1100F03F02EA
:10114000C3F388105CBF42F20041C0F2F401A1FB7E
:1011500000010023FFF7A6F821680222C1F3014134
:1011600002EB4101B0FBF1F010BD0000002804BF0C
:10117000012070472DE9F04182B00446007843F623
:101180000006C007C4F2020649D0B06800F00C00A7
:10119000042809D13068800341D5606800283ED119
:1011A000012002B0BDE8F081B06800F00C00082812
:1011B00002D170684002EDD465683068B5F5A02FA3
:1011C00005D0B5F5803F09D140F480300CE040F403
:1011D00080203060306840F4803005E020F48030BA
:1011E0003060306820F480203060FFF701FE002D71
:1011F000054611D03068800311D4FFF7F9FD401B7C
:101200006428F7D928E100BFFFF7F2FD401B6428EE
:101210004FF0030000F2E08030688003F4D42078BF
:1012200080071BD5B06810F00C0F09D0B06800F033
:101230000C00082840F085807068400200F1818031
:101240003068800703D5E068012840F09A80306854
:10125000216920F0F80040EAC100306020780007E2
:1012600034D42078400746D4A5695DB3B06800F057
:101270000C00082840F09C80012D00F082807068EE
:10128000E16900F480028A427BD1216A00F03F02CA
:101290008A4276D147F6C071626A0140B1EB821F83
:1012A0006FD1A16A4FF6FF73C903994300F440322E
:1012B000A1F580318A4264D1E16A00F07060B0EB40
:1012C000016F5ED1002002B0BDE8F08160690028A6
:1012D0005BD00020C4F247200121C0F8801EFFF738
:1012E00087FD0546706F8007BBD4FFF781FD401B6B
:1012F0000228F7D9B0E0306C5FEAC0080AD40020B9
:101300000190306C40F080503064306C00F08050C0
:101310000190019847F20007C4F200073868C00541
:1013200026D4386840F480703860FFF761FD0546C8
:101330003868C0051CD4FFF75BFD401B0228F7D9B5
:101340008AE0E068002840F20000C4F2472053D051
:1013500001210160FFF74CFD054600BF30688007A2
:101360003FF575AFFFF744FD401B0228F6D973E047
:10137000A568306F052D51D0012D56D140F00100E8
:1013800059E0012002B0BDE8F0810020C4F24720FE
:101390000021C0F8801EFFF72BFD0546706F800707
:1013A0007FF55FAFFFF724FD401B0228F6D953E01D
:1013B0000027C4F2472700203866FFF719FD022DE9
:1013C00005460DD1306880015DD5FFF711FD401B4A
:1013D00002284FF00300F5D902B0BDE8F08100BF4C
:1013E000306880017FF56EAFFFF702FD401B0228D9
:1013F0004FF00300F4D9EFE700210160FFF7F8FC9C
:10140000054600BF306880077FF528AFFFF7F0FC86
:10141000401B02284FF00300F4D9DDE740F0040040
:101420003067306F40F0010005E020F001003067C8
:10143000306F20F004003067FFF7DAFC002D05461E
:1014400041F2883713D000BF306F800712D4FFF706
:10145000CFFC401BB842F7D9032002B0BDE8F081B1
:10146000FFF7C6FC401BB8424FF00300B4D8306F02
:101470008007F5D4B8F1000F3FF5F6AE306C20F0E0
:1014800080503064F0E604F11C052FCD084340EA9B
:101490008210D9034FF6FF729143A1F5803140EAE3
:1014A00005600843706001203866FFF7A1FC044620
:1014B000306880013FF506AFFFF79AFC001B022859
:1014C0004FF00300F4D987E7411E0020B0EB116F05
:1014D0001CBF012070474EF21002CEF20002516094
:1014E0004EF62351CEF20001F0230B7007219060DD
:1014F0001160704790F83C20012A04BF0220704719
:10150000B0B501F108053CCDD1E900CE23F47C5300
:1015100022F470521A432EF4F0431A432CF4E043A1
:101520001A4324F4C0431A432A43C96922F480426F
:10153000036811435964002180F83C100020B0BDBD
:1015400090F83C30012B04BF022070474FEAB202F2
:101550000123032A80F83C3000F2B780F0B5DFE8C1
:1015600002F002812F5E02680024136A156AC4F239
:10157000010425F001051562D2F804E0D2F818C084
:101580008D6823F00203A24243EA050305D1CD682A
:1015900023F00C0325F004052B430D68A24206D16D
:1015A000D1E905472EF44076264346EA070E2CF093
:1015B00073072F43C2F804E097614968516380E0E4
:1015C00002680024136A176AC4F2010427F48077C2
:1015D0001762D2F804E0D2F81CC08D6823F40073BF
:1015E000A24243EA052307D1CD6840F2FF462D020F
:1015F00023F44063B5432B430D68A24206D1D1E9E1
:1016000005462EF44057264347EA061E2CF0730782
:101610002F43C2F804E0D7614968D16351E0026802
:101620000026D2F820C0136AC4F2010623F48053C6
:1016300013625368D4690D68D1F808E0B24204D14E
:101640004E6923F4804343EA861324F4E64646EACF
:1016500005265360D66149682CF4005747EA0E33DB
:1016600011642EE002680024136A176AC4F20104B0
:1016700027F010071762D2F804E0D2F818C08D687E
:1016800023F02003A24243EA051307D1CD686FF08F
:10169000400623F0C00306EA05152B430D68A2425D
:1016A00006D1D1E905462EF44067264347EA860E67
:1016B0002CF4E64747EA0527C2F804E09761496839
:1016C000916313620023BDE8F040002180F83C10D4
:1016D00018467047002804BF0120704710B5044623
:1016E00090F83D0028B9002084F83C00204600F026
:1016F0001FF8022084F83D002068211D00F048FDFD
:10170000012084F8460084F83E0084F83F0084F805
:10171000400084F8410084F8420084F8430084F8D3
:10172000440084F8450084F83D00002010BD00000E
:10173000704700004122082908BF4022042908BF41
:101740003F22002908BF3E22825C012A1CBF0120E3
:101750007047022241B1082909D0042914BF80F83A
:10176000412080F83F2004E080F83E2001E080F82E
:101770004020006801F01F010122036A8A4023EA29
:1017800002010162036A4421C4F201011A43A1F17A
:1017900044039842026203D10A6842F400420A609C
:1017A00040F6FF31C4F2000188420FDCB0F1804FF7
:1017B0001DD040F20041C4F20001884217D040F62B
:1017C0000001C4F20001884211D017E040F6004148
:1017D000C4F2000188420AD044F20001C4F20101BF
:1017E000884204D00021C4F20101884206D18168F8
:1017F00001F00701062904BF00207047016841F08D
:101800000101016000207047002804BF01207047DB
:1018100010B5044690F8410028B9002084F8400033
:10182000204600F021F8242084F841002068C16897
:1018300021F40051C160204600F01CFD20680169C0
:1018400021F490410161416921F02A014161C1689F
:1018500041F40051C16000202021606484F84110EF
:1018600084F84210606310BD80B586B044F2004138
:101870000068C4F20001002288420592CDE90322EB
:101880000292019201D006B080BD43F63000009272
:10189000C4F20200036943F400330361036903F4F3
:1018A00000330093009B0092036843F00103036040
:1018B000006800F00100009000980C2001900220C8
:1018C000CDE90202032004900720059001F5DE30E7
:1018D00001A9FFF7BDF906B080BD00002DE9F04376
:1018E00081B0044690F84100202809D1884600299B
:1018F0004FF0010018BF002A06D101B0BDE8F08307
:10190000022001B0BDE8F0830020606421201D4664
:1019100084F841001646FFF76BFAA684E684A168B6
:101920000646B1F5805F02D1206900284DD0C1463E
:101930004FF00008E08C40B36F1C0BE0B9F1000FD2
:101940001AD019F8010B21684860E08C0138E08456
:10195000E08CD0B1206800680006EFD4002FF9D0E9
:10196000FFF746FA01464FF0030045B3891BA94231
:1019700025D82068C068EDE738F8020B21686FF3BE
:101980005F2048604FF00009DFE7206800684006EC
:1019900014D46F1C04E000BF2068006840060DD41A
:1019A000002FF9D0FFF724FA01464FF0030035B1BC
:1019B000891BA94203D82068C068EDE700202021D8
:1019C00084F8411001B0BDE8F0834FF00009B1E7A1
:1019D000FEE7000010B584B040F20044C4F20204F7
:1019E00020464FF480710022FFF7FCF920464FF4A7
:1019F00000710022FFF7F6F9322001900198411E94
:101A000000280191FAD120464FF480710122FFF79E
:101A1000E9F93220029000BF0298411E002802918D
:101A2000FAD120464FF400710122FFF7DBF9322092
:101A3000039000BF0398411E00280391FAD104B01F
:101A400010BD0000F0B581B040F200440546C4F27C
:101A500002040026322700BFE8B2C20920464FF434
:101A60000071FFF7BFF900970098411E0028009110
:101A7000FAD120464FF480710122FFF7B3F90097A5
:101A80000098411E00280091FAD120464FF4807141
:101A90000022FFF7A7F90136082E4FEA4505DBD1F2
:101AA00020464FF400710122FFF79CF9322000908C
:101AB0000098411E00280091FAD120464FF4807111
:101AC0000122FFF78FF93220009000BF0098411EDD
:101AD00000280091FAD120464FF48071002201B015
:101AE000BDE8F040FFF77EB92DE9F04F9BB00E4600
:101AF00011460546069201F0E9FA40F28801C2F269
:101B0000000108600021C4F2F011284601F06AF8D3
:101B10000446002818BF012402D04FF07E5013E085
:101B20000021C4F25C21284601F04EF808B10020E3
:101B30000AE00020C4F25C20294601F0C7FA002127
:101B4000C4F2C81101F068F800210490C4F2A01199
:101B5000284601F047F840B90021C4F23421284654
:101B600001F032F820B100200DE04FF07E500AE085
:101B70000020C4F23420294601F0A8FA0021C4F262
:101B8000C81101F049F800210590C4F2C811284697
:101B900001F028F868B90021C4F24821284601F074
:101BA00013F848B10021C4F29621284601F00CF840
:101BB00048B10027A4B121E00021CCF2C811284689
:101BC00000F092FF05E00020C4F29620294601F0C3
:101BD0007DFA0021C4F2C81101F01EF807466CB965
:101BE0000021C4F24821284600F0EEFF40B1002158
:101BF000C4F28C21284600F0E7FF40B1002011E03C
:101C00000021CCF2F011284600F06EFF05E0002024
:101C1000C4F28C20294601F059FA0021C4F2A01127
:101C200000F0FAFF00210390C4F23421284600F0AE
:101C3000D9FF48B90021C4F28C21284600F0C4FF26
:101C400020B14FF07E500CE000200AE00021CCF2E1
:101C50003421284600F048FF0021C4F2C81100F0EA
:101C6000DBFF00210190C4F25C21284600F0BAFF9E
:101C7000079548B90021C4F2A021284600F0A4FF2E
:101C800020B14FF07E500CE000200AE00021CCF2A1
:101C90005C21284600F028FF0021C4F2C81100F0A2
:101CA000BBFF00210290C4F29631304600F09AFF4B
:101CB0000546002818BF012502D04FF07E5A17E0D4
:101CC00048F20001C4F20941304600F07DFF10B136
:101CD0004FF0000A0CE048F20000C4F2094031461F
:101CE00001F0F4F90021C4F27A3100F095FF824648
:101CF0000021C4F24831304600F074FF48B9002199
:101D0000C4F2E131304600F05FFF28B14FF0000926
:101D10000EE04FF07E590BE00020C4F2E130314676
:101D200001F0D4F90021C4F27A3100F075FF814648
:101D30000021C4F27A31304600F054FF70B900211E
:101D4000C4F2FA31304600F03FFF50B148F20001D2
:101D5000C4F23B41304600F037FF48B10024ADB13A
:101D600022E00021CCF27A31304600F0BDFE06E0E0
:101D700048F20000C4F23B40314601F0A7F90021CF
:101D8000C4F27A3100F048FF04466DB90021C4F274
:101D9000FA31304600F018FF48B10021C4F22F415B
:101DA000304600F011FF48B14FF0000B12E0002167
:101DB000CCF29631304600F097FE05E00020C4F2E8
:101DC0002F40314601F082F90021C4F2483100F081
:101DD00023FF83460021C4F2E131304600F002FFC8
:101DE000089648B90021C4F22F41304600F0ECFEBD
:101DF00028B14FF07E580EE04FF000080BE00021B4
:101E0000CCF2E131304600F06FFE0021C4F27A31AD
:101E100000F002FF8046089D48F20001C4F209412B
:101E2000284600F0DFFE48B90021C4F248412846A8
:101E300000F0CAFE20B14FF07E550EE000250CE008
:101E400048F20001CCF20941284600F04DFE002185
:101E5000C4F27A3100F0E0FE0546049E5146304659
:101E600000F0C7FE0028504618BF3046129030469A
:101E7000214600F0BEFE0028204618BF30461390D1
:101E80003046414600F0B5FE00283846514608BFAE
:101E90004646149600F0ADFE0028504618BF38465E
:101EA00015903846214600F0A4FE0028204618BFB1
:101EB000384616903846414600F09BFE002808BF81
:101EC0004746019E51463046179700F092FE002883
:101ED0003046214618BFB246CDF860A000F089FE1A
:101EE00000283046414618BF3446199400F081FE60
:101EF000002818BFB046059C49462046CDF86880AA
:101F000000F077FE0028484618BF2046099020467A
:101F1000594600F06EFE0028584618BF20460A9029
:101F20002046294600F065FE002808BF2C460B9489
:101F3000039C4946204600F05CFE0028484618BF36
:101F400020460C902046594600F053FE0028584683
:101F500018BF20460D902046294600F04AFE002872
:101F600008BF2C460E94029C4946204600F041FED4
:101F700000282046594618BFA146CDF83C9000F0F5
:101F800038FE00282046294618BFA346CDF840B0A9
:101F900000F02FFE00260DF124094FF0000A4FF04B
:101FA000000B4FF000080027002818BF25461195A8
:101FB00012A8845967A085592046294600F0BAFF27
:101FC000414600F091FD80463846214600F08CFDE8
:101FD00059F8064007462046294600F0ABFF514617
:101FE00000F082FD82465846214600F07DFD043611
:101FF000242E8346DCD141F26F24C3F68324384675
:10200000214600F0E1FD81464046394600F004FEDD
:102010000646584621464FF07E57B9F1000F08BFDB
:102020003E4600F0D1FD80465046594600F0F4FD92
:10203000B8F1000F18BF07463046394600F054FD8E
:102040004FF07C5100F076FF804600210898CCF2DA
:10205000FA3100F049FD4DF20A71C3F6A34100F0D8
:1020600069FF069901F032F80146079800F03CFD3F
:10207000054640F2641440F28800C2F20004C2F245
:1020800000002668056028464FF07A5100F052FFA4
:10209000314600F029FD0021C4F29631064600F0D9
:1020A00093FD002100281CBF0026C4F29636CCF216
:1020B0009631304600F09DFD40F2E417C2F2000771
:1020C00000281CBF0026CCF29636396828462660C8
:1020D00000F0FCFF814640F20800C2F200000468F4
:1020E00040F20400C2F20000006831463D6000F09A
:1020F00021FF06462046294600F01CFF314600F02D
:10210000F3FC40F20001C2F20001096804460846EF
:10211000494600F00FFF214600F0E6FC014640462C
:1021200000F008FF4CF20001C4F27941044600F0CF
:102130004BFD00281CBF4CF20004C4F27944204639
:10214000002100F056FD002818BF002420461BB0D7
:10215000BDE8F08F9A99993E0000003F0000803F53
:102160003333333F0000803F0000C03F9A99993FCE
:102170000000C03F00000040FEE70000FEE7000056
:102180007047000070470000FEF738BE704700003F
:10219000B0B540F2FF7E0568C4F2000E40F2000CBC
:1021A0007045C4F2010C0ADD40F60003C4F20003DE
:1021B00098420DD060450BD040F6004304E0B0F1EA
:1021C000804F05D040F20043C4F20003984204D18E
:1021D0004B6825F0700243EA02054FF6FF73C4F224
:1021E0000003984209DC704512DCB0F1804F26D024
:1021F00040F20043C4F200031FE044F2FF33C4F294
:10220000010398420FDC604519D044F2000312E04C
:1022100040F60003C4F20003984210D040F6004399
:10222000C4F2000309E044F60003C4F2010398423B
:1022300005D044F20043C4F20103984204D1CB68B4
:1022400025F4407243EA02050A688C684B696045D0
:10225000C462826202D10969CCF83010026825F0AC
:10226000800142F0040219430260012242610160D0
:10227000B0BD0000B0B50446006804F108030ECB01
:102280000569194325F440552A4302616269E369EF
:102290001143C268194349F20C639A431143C16068
:1022A0004169A26921F4407141F20043114340F4B5
:1022B0008062C4F201039A42416102D1FEF70CFF31
:1022C00001E0FEF7F5FEE1694FF69C75636819229F
:1022D000C0F6FF75B1F5004FA0FB02011CD15A00FA
:1022E000DB0FFDF7DFFF48F21F51C5F2EB11A0FB3A
:1022F00001235A0905F1805302FB0300322303EB4B
:10230000C000A0FB01014FF4F87000EA111000EBCF
:102310000210C1F3421118E09A009B0FFDF7C2FFB3
:1023200048F21F51C5F2EB11A0FB01235A0902FB31
:102330000500322303EB0010A0FB0101F02000EAAE
:10234000511000EB0210C1F343110844216888606A
:10235000B0BD0000FEE7000080B51420FEF764FC6D
:10236000302000F0CDF80520FEF75EFC302000F0B4
:10237000C7F80120FEF758FC302000F0C1F8022019
:10238000FEF752FC202000F0BBF80220FEF74CFCC8
:10239000282000F01DF80120FEF746FC082000F080
:1023A00017F80120FEF740FC012000F011F8022090
:1023B000FEF73AFC062000F00BF80120FEF734FC93
:1023C0000C2000F005F80120BDE88040FEF72CBC91
:1023D00070B582B040F20044C4F2020405462046C3
:1023E0004FF400710122FEF7FDFC20464FF480718E
:1023F0000122FEF7F7FC3220009000BF0098411E3A
:1024000000280091FAD120464FF400710022FEF717
:10241000E9FC3220019000BF0198411E0028019183
:10242000FAD120464FF4807100222E0105F0F0050C
:10243000FEF7D8FC4020FFF705FB05F10C00FFF785
:1024400001FB05F10800FFF7FDFA06F10C00C0B230
:10245000FFF7F8FA06F10800C0B2FFF7F3FA02B08E
:10246000BDE87040FFF7B6BA70B582B040F20044E4
:10247000C4F20204054620464FF400710122FEF723
:10248000B1FC20464FF480710122FEF7ABFC3220F4
:10249000009000BF0098411E00280091FAD120460C
:1024A0004FF400710022FEF79DFC3220019000BF26
:1024B0000198411E00280191FAD120464FF4807105
:1024C00000222E0105F0F005FEF78CFC4020FFF7FE
:1024D000B9FA05F10D00FFF7B5FA05F10900FFF7AC
:1024E000B1FA06F10D00C0B2FFF7ACFA06F109002F
:1024F000C0B2FFF7A7FA02B0BDE87040FFF76ABAB2
:10250000B0B582B040F20045C4F202050446284648
:102510004FF400710122FEF765FC28464FF48071EC
:102520000122FEF75FFC3220009000BF0098411EA0
:1025300000280091FAD128464FF400710022FEF7DE
:1025400051FC3220019000BF0198411E00280191EA
:10255000FAD128464FF480710022FEF743FC402058
:10256000FFF770FA44F00C00FFF76CFA44F0080033
:10257000FFF768FA02B0BDE8B040FFF72BBA0000E1
:102580009AB047F20004C4F20004FEF745FC0DF1D6
:102590001C0948463021FDF783FF002543F640071C
:1025A0001795CDE91555CDE913550695C4F20207E7
:1025B0003868022140F08050386038684FF0010AD6
:1025C00000F08050069006980695206861F38F30E1
:1025D0002060206800F440400690069810200B9080
:1025E00048460791CDF828A00D95FEF7BFFD0F20B6
:1025F000CDE9130513A80021CDE915551795FEF770
:10260000A7FCFEF72DF80795386844F2004340F424
:10261000003038603868C4F2000300F400300790DE
:10262000079840F21C10C2F200004FF496510C22A1
:10263000C0E90031C0E90255C0E90452C0E90655BD
:10264000FFF7E2F80795786840F2D40640F0010001
:1026500078607868C2F2000600F0010007900798E1
:1026600004F510409F2186E82300802040F2E732E5
:10267000B0613046C6E90325FFF72CF860201390BF
:1026800013A930460022CDE91855CDE91655CDE9FC
:102690001455FEF755FF4FF480400DF11C0B0E90C2
:1026A000304659460D95CDE90B55CDE90955CDE993
:1026B0000755FEF71FFF30460021FFF73BF807954F
:1026C000786840F480707860786840F28C0700F495
:1026D00080700790079804F53040C2F20007C7E900
:1026E000000538463D7687F82050FD62C7E902555F
:1026F0003D61C7F81CA0FEF7CBF8FFF72DFE0120C7
:10270000FFF766FE04F5CA35284602210122FEF7CE
:1027100069FB2846042100224FF00408FEF762FB03
:1027200004F5CC304FF4005101220490FEF75AFB1F
:10273000FEF75EFB40F2FC11A0F57A70C2F20001D8
:102740000860FEF755FB40F2F411A0F5FA70C2F2F2
:1027500000010860FEF74CFB40F2F811A0F57A701A
:10276000C2F200010860FEF743FB40F20021A0F531
:10277000FA70C2F2000140F2E0150860ABF101000E
:10278000C2F20005059005E040F28C074FF0040806
:10279000C2F20007FEF72CFB40F2FC11C2F200016E
:1027A00009688246401AB0F57A7FC0F0838040F213
:1027B000FC10C2F20000C0F800A04FF0000B012492
:1027C00038464946CDF828B0CDF81CB0CDE90848C8
:1027D000FDF7C0FF3846FEF799F938460A21FEF7A3
:1027E00035F94FF0000618B93846FEF74DF80646A1
:1027F0003846FEF7FDF940F2EA10C2F2000006800A
:10280000064638464946CDE90744CDE9098BFDF730
:10281000A1FF3846FEF77AF938460A21FEF716F985
:1028200018B93846FEF730F883463846FEF7E0F927
:10283000308840F2E811C2F20001A1F800B000F0C7
:10284000FDFA0021C4F2253100F074FB4FF20004C0
:10285000C4F27F54214600F0DFF9064640F2EC1046
:10286000C2F2000006601FFA8BF000F0E7FA0021C8
:10287000C4F27A4100F05EFB214600F0CDF9044637
:1028800040F28400C2F20000002104603046C4F22D
:10289000201100F04FFB00F0B5FA40F2F011C2F247
:1028A00000010860204600F0ADFA40F28001C2F25B
:1028B0000001086040F2F410C2F200000068AAEBC8
:1028C0000000B0F5FA7F19D340F21000C2F2000008
:1028D000026840F28400C2F20000016840F2EC108D
:1028E000C2F20000006840F2F413C2F20003C3F821
:1028F00000A0FFF7F9F800F085FA286040F2F81020
:10290000C2F200000068AAEB0000B0F57A7F20D385
:1029100040F2D401C2F2000140F2F81228680968BE
:10292000C2F20002C2F800A0002400224863B0F501
:10293000AF7FD8BF0124C8BF0122049E4FF40041DD
:102940003046FEF74FFA30464FF400512246FEF76C
:1029500049FA40F20020C2F200000068AAEB000031
:10296000B0F5FA7FFFF416AF286840F20021C2F2FA
:102970000001C1F800A0C0EB001140F22152CE00CE
:10298000C8F23432CA4640F2F01956FB02F2C2F2E3
:10299000000902EBC102D9F8005046F267695312F0
:1029A000C6F266694DF2015703EBD27455FB09F28A
:1029B000CDF2EC17931056FB07F603EBD27240F200
:1029C000800806EBC10102EB8203C2F200084E133D
:1029D000A5EB4303D8F8005006EBD17B54FB09F17B
:1029E0008F1007EBD171CDE9005040F2681501EB73
:1029F0008101C2F20005A4EB4104284627A1CDF8CD
:102A000008B00394FDF7C6FC82B240F21C10C2F27B
:102A1000000029466423FEF761FF8020FFF7D8FC01
:102A200040F2F010C2F200000068D8F8007050FBCD
:102A300009F18A1002EBD17202EB8201A0EB410393
:102A400050461FA1D1460097FDF7A4FC9DF81C003D
:102A500038B1059DC0B2FFF707FDA8780135002801
:102A6000F8D1C020FFF7B4FC40F2E015C2F2000537
:102A70002A68484617A15B460094FDF78BFC9DF839
:102A80001C0000283FF480AE059C00BFC0B2FFF7D9
:102A9000EBFCA07801340028F8D175E6543A25649F
:102AA0002E256443204C3A25644C782050574D3AEB
:102AB000256420563A25642E2564560D0A00000030
:102AC000543A25642E256443204C3A25644C7820E2
:102AD0002000000050574D3A256420563A25642EB8
:102AE000256456202000000090EA010F48BF81F0C5
:102AF000004100F1F282421A3CBF801A89184FEA65
:102B0000D052A2EBD1534FF07F4C1CEA410F18BFBB
:102B10009CEA026F00F03B804FF0004C4CEA002032
:102B20004CEA012121FA03FC10EB0C0C1ED202F13D
:102B3000FF325FEA1C2040EBC25038BF70471CF0E8
:102B40007F0F4FEA400C18BFBCF17F4F38BF704772
:102B5000C3F12003994008BF20F00100BCF17F4F72
:102B600038BF7047A0F1C04000F0ABBA4FEA3C005C
:102B7000000A40EBC25028BF1CF0FF0F4FEA400C88
:102B8000E6D018BFBCF17F4F38BF7047EAE79CEA38
:102B9000026F05D010EA5C0F08BF00F000407047DC
:102BA00010B500F048FA00BF64FBBE3E10B500F05F
:102BB000F5F80CBF0120002010BD10B500F0EEF8B4
:102BC00014BF0120002010BD10B500F04BF98CBFE0
:102BD0000120002010BD10B500F044F92CBF0120E9
:102BE000002010BD10B500F071F994BF0120002045
:102BF00010BD10B500F06AF934BF0120002010BDEF
:102C0000401058BFC0F14040491058BFC1F1404189
:102C10008142EFF3008070474FF47F0C1CEAD01222
:102C20001EBF1CEAD11392EA0C0F93EA0C0F00F0BE
:102C3000858090EA010F48BF42F4807240F4000C96
:102C400041F400002CF07F4120F07F4000B5A2EB62
:102C5000030281420FF2081CACEB504E9EF800E0DC
:102C6000C0F100004FEA4E0E00FB0EFC38BF4900D9
:102C70004FEA2C1C0CFB0EF34FEACE1E0EEB635EEC
:102C80004FEA112C0EFB0CFC4FEAC1214FEA1C53FA
:102C900000FB031102F5FA024FEA112C0EFB0CFCAB
:102CA0004FEA01314FEADC4C00FB0C1142EB2242AF
:102CB000C14228BF09184CEB03335DF804EB10EB5D
:102CC000410143EBC250B2F57C0F38BF704729D5A4
:102CD00012F0F00F1CBF00F1C04000F00040704740
:102CE000008182838485868788898B8C8D8E8F91E5
:102CF0009293959697999A9C9D9FA0A2A3A5A7A809
:102D0000AAACAEB0B2B3B5B7B9BCBEC0C2C5C7C934
:102D1000CCCED1D4D7D9DCDFE2E6E9ECF0F3F7FA98
:102D2000FE0000004FEA400C0CF1807CBCF17E4FAD
:102D300028BF7047B0F1C04000F0C3B90CEAD1130E
:102D400090EA010F48BF42F48072624538BF634584
:102D500007D213F47F0F16D080EA010000F0004084
:102D6000704710B500F067F9097EFC3E00F005B829
:102D700080EA010000F00040704780EA010000F0A6
:102D8000004000F09EB912F47F0F04BF0248704764
:102D900080EA010000F095B90000C07F50EA010C04
:102DA00000F113801CF5000F58BFBCF5000F01D4D3
:102DB0008842704707D710F5000F58BF11F5000F74
:102DC00015D488427047894270471CF5000F04D51E
:102DD000BCF5000FF7D5814270474FF0807C1CEBAB
:102DE000400F38BF1CEB410F01D28142704710B534
:102DF00000F021F9922449004FF000504FF080512B
:102E0000FFF7FEBE41000B0ED3F19E0208D950F42D
:102E100000034FEA032323FA02F048BF4042704701
:102E200010B500F008F900BF4992248000207047D7
:102E30006FF0004282EA200070470000B0FA80F391
:102E400010FA03F2C3F19D030AD0D90501EB122059
:102E5000530638BF704700F1010008BF20F00100A1
:102E60007047000050EA010C00F113801CF5000FC0
:102E700058BFBCF5000F01D48842704707D710F542
:102E8000000F58BF11F5000F15D4884270478942D2
:102E900070471CF5000F04D5BCF5000FF7D5814233
:102EA00070474FF0807C1CEB400F38BF1CEB410F8C
:102EB00001D28142704710B500F0BDF8922449005C
:102EC0004FF080504FF00051FFF79ABE50EA010CCE
:102ED00000F113801CF5000F58BFBCF5000F01D4A2
:102EE0008842704707D710F5000F58BF11F5000F43
:102EF00015D488427047894270471CF5000F04D5ED
:102F0000BCF5000FF7D5814270474FF0807C1CEB79
:102F1000400F38BF1CEB410F01D28142704710B502
:102F200000F089F8922449004FF000504FF0805192
:102F3000FFF766BE4FF47F0C1CEAD0121EBF1CEADE
:102F4000D11392EA0C0F93EA0C0F00F0478090EA3D
:102F5000010F48BF42F480724FF0004C4CEA002051
:102F60004CEA012102EB0302A0FB0113A2F50002CF
:102F7000002918BF43F001035B0028BF4FEA330369
:102F800042EB22425FEA132C4CEBC2502EBFBCEB4B
:102F9000436FB2F57C0F70474FEA036CBCF1004FF2
:102FA00008BF20F00100B2F57C0F38BF70470BD589
:102FB00082F0FF0212F5803FC8BF704700F1C040A9
:102FC000D8BF00F00040704700F5000C5FEA4C0CE1
:102FD00048BF7047B0F1C04000F073B80CEAD1139D
:102FE00090EA010F48BF42F48072624538BF6345E2
:102FF00004D280EA010000F00040704710B500F0F4
:103000001AF800BF8900013E00F007B800F009B8C7
:103010005FEA410C5FEA1C6C08D080EA010000F016
:1030200050B85FEA400C5FEA1C6CF6D14FF00040EC
:10303000A0F5800070470EF1020E2EF0030E5EF830
:10304000044B244204D44FEA4102B2F17F4F11D81D
:103050004FEA4003B3F17F4F0CD80ED14FEAD07C3A
:103060000CEB4C0C0CF1020CB2F17F4F08BF4CEB97
:10307000D17C04E04FF0080C01E04FEAD17C0CEB6E
:103080004C0324FA03F404F00704B4F1040C06D250
:103090000EEB840CBDE810404CF0010C6047DFE8FB
:1030A0000CF0070802024FF00040A0F5800010BDB0
:1030B0000846420018BFD2F1807288BF00F000407D
:1030C00010BDFF2141EAD050C005704790EA010FC2
:1030D00048BF81F000413FF50EAD421A04D882F09E
:1030E0000042A0EB020011444FEAD052A2EBD153B0
:1030F0004FF07F4C1CEA410F18BF9CEA026F4AD088
:103100004FF0004C4CEA00204CEA012121FA03FC6C
:10311000B0EB0C0C0FD412F0FE0F36D05FEA4C006F
:103120001DD5001240EBC25038BF70471CF03F0F56
:1031300018BF70470BE05FEA1C20A2F1010240EBD0
:10314000C25038BF70471CF07F0F18BF7047C3F1E3
:103150002003994014BF401E20F0010070474FEA41
:103160001223800808BF7047B0FA80FCA2EB0C0263
:10317000CCF1280C60FA0CF093EA122F04BF00EB9C
:10318000C25070474FEAC3707047130A5FEADC1001
:1031900008BF7047F6E79CEA026F04D010EA5C0FA4
:1031A00008BF0020704710B5FFF745FF40DFF63E2F
:1031B00081F00040704700000000000000000102A4
:1031C00003040607080900000000010203040000D0
:1031D000F03100080000002020000000F801000885
:1031E0001032000820000020E80700001802000844
:1031F0000000803FCDCC4C3D000040410024F40055
:103200000000484201000000100000000000000023
:040000050800019559
:00000001FF
