:020000040800F2
:10000000080800206502000879210008D1190008BD
:10001000752100085906000851230008000000005F
:100020000000000000000000000000008121000826
:100030005D060008000000007D2100088521000801
:100040007F0200087F0200087F0200087F0200088C
:100050007F0200087F0200087F0200087F0200087C
:100060007F0200087F0200087F0200087F0200086C
:100070007F0200087F0200087F0200087F0200085C
:100080007F0200087F0200087F02000800000000D5
:100090000000000000000000000000007F020008D7
:1000A0007F0200087F0200087F0200087F0200082C
:1000B0007F0200087F0200087F0200087F0200081C
:1000C0007F0200087F0200087F0200087F0200080C
:1000D0007F0200087F0200087F0200080000000085
:1000E0007F0200087F0200087F0200080000000075
:1000F0000000000000000000000000007F02000877
:10010000000000007F0200087F0200087F02000854
:1001100000000000000000000000000000000000DF
:100120007F0200087F0200087F0200087F020008AB
:100130007F02000800000000000000000000000036
:100140000000000000000000000000007F02000826
:100150007F0200087F0200087F0200087F0200087B
:100160007F0200087F02000800000000000000007D
:10017000000000000000000000000000000000007F
:10018000000000007F0200080000000000000000E6
:100190007F02000800F002F800F055F814A696E877
:1001A000000CB244B344DA4501D100F04CF8BAE88F
:1001B0000F000FA696E83000A5EB040504EB060738
:1001C000AAEB0704A7F101074FEA15154FEA34140B
:1001D000A4F10104AC4201D300F035F813F0010F93
:1001E00018BFFB1A43F0010300F001F8DBE71847E2
:1001F0004430000064300000103A24BF78C878C151
:10020000FAD8520724BF30C830C144BF04680C601C
:1002100070470000704700000023002400250026DE
:10022000103A28BF78C1FBD8520728BF30C148BF59
:100230000B607047642900F0F780002070471FB5FD
:100240001FBD10B510BD00F0CCF91146FFF7F7FF48
:1002500002F094F900F0EAF903B4FFF7F2FF03BCEF
:1002600000F0F2F90948804709480047FEE7FEE739
:10027000FEE7FEE7FEE7FEE7FEE7FEE7FEE7FEE756
:1002800004480549054A064B7047000089210008CB
:10029000950100080802002008080020080400203A
:1002A0000804002053EA020C00F069802DE9F04BAD
:1002B0004FF00006002B1FBFB3FA83F503FA05F4D5
:1002C00024FA05F65E4012BF1643B2FA82F502FA2E
:1002D00005F4C5F120051EBF22FA05FC44EA0C0412
:1002E000203556EA044C4FEA144418BF641C4FF002
:1002F00000084FF00009904271EB030C39D300293C
:1003000019BFB1FA81F701FA07F6B0FA80F700FADF
:1003100007F6C7F120071EBF20FA07FC46EA0C06C5
:100320002037B6FBF4FCA7EB0507103F07F01F0BC7
:10033000CBF120062CFA06F60CFA0BFB44BFB346B1
:100340000026202FA4BF5E464FF0000B5BEA060C90
:1003500008BF4FF0010B19EB0B0948EB0608ABFB8C
:10036000027C06FB02CC0BFB03CCC01B71EB0C0127
:10037000C1E70B46024641464846BDE8F08B13B53F
:10038000084318BF4FF0FF300146AFF30080BDE8CF
:100390001C4070470FB41CB5084B06AA7B44694645
:1003A0000090059800F005F904460020694600F029
:1003B00013F920461CBC5DF814FB00003902000054
:1003C0002DE9F0410E460446002020622046E168F7
:1003D000884730B3252805D0D4E901219047206A09
:1003E000401CF2E7E168204600278847050018D046
:1003F000A5F14100192802D820354FF40067324694
:10040000294620462760FFF715FF40B1012804D098
:10041000F61D26F007060836D8E7361DD6E728462B
:10042000DAE7206ABDE8F0812DE9F04106460024B4
:1004300010687529314616A510D0AFF3008000284A
:1004400002DA404213A507E031688A0701D512A5F8
:1004500002E0490704D511A5012401E0AFF30080B3
:1004600000210A2206F1240709E0B0FBF2FCB0FBF0
:10047000F2F302FB1C00303078541846491C002867
:10048000F3D123462A463046BDE8F04100F032B8A9
:10049000000000002D0000002B00000020000000E4
:1004A0004FF0000200B5134694469646203922BF0D
:1004B000A0E80C50A0E80C50B1F12001BFF4F7AF58
:1004C000090728BFA0E80C5048BF0CC05DF804EB3A
:1004D000890028BF40F8042B08BF704748BF20F8A8
:1004E000022B11F0804F18BF00F8012B70477047A6
:1004F000704770472DE9F0470D46994692460446ED
:1005000000F124080168880604D5E06921F0100193
:10051000216000E00120A84201DD471B00E0002728
:10052000A1697A1902EB0900081AA0612078C006B7
:1005300002D42046AFF30080002608E0D4E9012170
:100540001AF806009047206A401C761C20624E452F
:10055000F4DB2078C0060AD52046AFF3008006E021
:10056000D4E9012130209047206A401C2062381EC7
:10057000A7F10107F4DC07E0D4E9012118F8050030
:100580009047206A401C2062281EA5F10105F3DC7B
:100590002046AFF300802078000602D50220BDE897
:1005A000F0870120FBE7000001694A1C026108781E
:1005B000704700B58FB0CDE90131002105910549A3
:1005C0007944CDE9031011466846FFF7F9FE0FB0F4
:1005D00000BD0000E5FFFFFF0A6802F8010B0A609A
:1005E0007047754600F02CF8AE4605006946534644
:1005F00020F00700854618B020B5FFF741FEBDE8A2
:1006000020404FF000064FF000074FF000084FF079
:10061000000BAC46ACE8C009ACE8C009ACE8C009C6
:10062000ACE8C00921F007018D46704710B50446BB
:10063000AFF300802046BDE81040FFF70DBE00007C
:10064000004870472000002001491820ABBEFEE79B
:100650002600020070470000FEE70000704700001F
:100660002DE9F04387B0002743F630000697CDE927
:100670000477CDE902770197C4F2020001680025F2
:1006800041F0010101600168C4F2020501F00101BD
:10069000019101990197016802AC41F002010160EA
:1006A00001684FF0030801F00201019101990197DF
:1006B000016841F0040101600068214600F0040077
:1006C000019001982846CDE90288049700F0C0FA0D
:1006D000042002900220CDE9030707262846214680
:1006E0000597069600F0B4FA0820029028462146A5
:1006F000069600F0ADFA4FF4807002904FF00109B9
:1007000028462146CDF8189000F0A2FA062005F5FB
:100710008066CDE9020930462146059700F098FA37
:100720004FF42040CDE9020905F500602146CDE9EE
:10073000047700F08DFA4FF4407002901120CDE95B
:10074000030930462146CDF8148000F081FA07B045
:10075000BDE8F083B0B581B00022009290F83C2053
:10076000012A02D1022001B0B0BDD1F800E001227F
:10077000BEF10A0F80F83C200ED31FFA8EF2520011
:10078000036812FA8EF21E3A4FF0070C53F80C5F12
:100790000CFA02F4A54308E003680EEB4E020725AD
:1007A00053F8104F954024EA05051D608D6805FA41
:1007B00002F21D682A431A604A68062A0ED802EB24
:1007C00082014A1F01681F2351F8345F934025EAD4
:1007D00003030B601FFA8EF3934014E0016802EBF1
:1007E00082030C2A1FFA8EF203D851F8304F233BB4
:1007F00002E051F82C4F413B1F259D4024EA05059E
:1008000002FA03F30D600A6842F2043C1A430A60DC
:10081000C4F2010C0168BEF1120FACF5417308BFC0
:10082000994205D1DCF8002042F48002CCF8002087
:100830002EF00102102A08BF994205D0002180F84D
:100840003C10002001B0B0BDDCF80010BEF1100F6C
:1008500041F40001CCF80010F0D140F20C01C2F2DA
:10086000000109684DF68362C4F21B32A1FB02123B
:10087000910C01EB81014900009100990029DDD024
:1008800000990139F8E700000068C06C704700006B
:10089000002804BF0120704710B5016C39B9044627
:1008A00000F0A0F820460021616484F83C10016C3F
:1008B000C9063AD4016C41F202129143023142F26C
:1008C00004320164C4F20102116821F44031116064
:1008D000136890E812102343D0F810E013604A68C0
:1008E000012422F480724A604A68C0F6007442EA29
:1008F0000E224A604A6822F040724A604A6842EA20
:100900000C024A608A6822F400628A60C2688B68BE
:100910001A438A60826A8B68A24223F070638B60FC
:100920008B6804D123F040520AE0012152E01A43BF
:100930008A608A6822F040528A60C26A8B681A43D1
:100940008A608A6822F002028A608A68037E90F8D0
:10095000204042EA43028A604A6884B142F400625D
:100960004A604A684EF2000322F460424A60426ADA
:10097000CFF6FF734C6803EB4232224301E022F4CE
:1009800000624A60CA6A40F2000C22F47002CA6235
:10099000C3694269CFF6F07CCC6A0CEB0353234366
:1009A000CB628B6823F400738B6090F830308C68D6
:1009B00044EA43238B608B6823F480638B608B68ED
:1009C00043EA82228A6000214164026C012363F3BE
:1009D00001020264002280F83C20BDE81040084675
:1009E0007047000080B586B042F200010068C4F292
:1009F0000101002288420592CDE903220292019270
:100A000001D006B080BD43F630000092C4F202006F
:100A1000436943F480734361436903F48073009333
:100A2000009B0092036843F001030360006800F03C
:100A30000100009000980320CDE9010001F560401D
:100A400001A9039200F004F906B080BDF0B581B0B1
:100A5000044600680D468268520544BF80685FEA1C
:100A6000C0502BD400F0C4F921680A68920715D44D
:100A700006466F1C08E000BF20680068800727D585
:100A800021680868800709D4002FF9D0002DF3D021
:100A900000F0AEF9801BA842EED8F1E76FF012002B
:100AA0000860206C40F400702064886810F0405F9B
:100AB00001D1207EB0B1002001B0F0BD206C40F02B
:100AC00020002064002084F83C00012001B0F0BD2B
:100AD000206C40F004002064002084F83C000320D7
:100AE00001B0F0BDC86A10F4700F02D088684005EC
:100AF000E1D4206C20F480702064206CC004DAD42F
:100B0000206C40F001002064D5E7000010B581B0F2
:100B10000021009190F83C10012902D1022001B07F
:100B200010BD0468012180F83C10214651F8083FAF
:100B3000DB0717D10B684DF6836243F001030B60AE
:100B400040F20C03C2F200031B68C4F21B32A3FB89
:100B500002239A0C02EB42020092009A12B1009A10
:100B6000013AF9E70A68036CD20709D143F0100192
:100B7000016400F1440101200A681043086033E079
:100B800040F2017223EA020202F580720264626896
:100B9000520504D5026C012363F30D320264026C2A
:100BA0004FF0000C0023D20444BF426C22F0060335
:100BB00042F2000E436480F83CC06FF02200C4F2A1
:100BC000010E2060DEF80403C00609D074450BD185
:100BD000DEF8080010F0405F06D14FF08040CBE710
:100BE000086810F0405FF8D0002001B010BD000090
:100BF00090F83C10012904BF0220704701210268CF
:100C000080F83C10916821F0010191609168C9075A
:100C100005D1016C41F201129143013101640021BF
:100C200080F83C1000207047B0B5044600F0E0F8B2
:100C3000054640F21400C2F200000078611C18BFA3
:100C4000044400BF00F0D4F8401BA042FAD3B0BD6A
:100C50002DE9F04F83B000F1200200F13E4741F250
:100C60000005009207F1FF77C4F2020507224FEA60
:100C7000B726A84208BF0422042E38BF4FEAB72285
:100C800000274FF0000A4FF0000801920AE000BF71
:100C900008F101080AF1020AB8F1100F07F1040780
:100CA00000F09D800D68012202FA08FC15EA0C098B
:100CB000EED04D68032205F0030BABF10106012EC7
:100CC00002FA0AFE10D88668CC6826EA0E0604FAF4
:100CD0000AF4344384604468C5F3001524EA0C0622
:100CE00005FA08F52E434660BBF1030F1BD0C6681A
:100CF0008D6826EA0E0605FA0AF52E43BBF1020FAF
:100D0000C66010D16FF00302009D02EA580655F844
:100D100006C007F01C040F220B69A2402CEA020255
:100D2000A3401A43AA5102684B6822EA0E0203F05C
:100D3000030606FA0AF6324313F4403F0260A7D0D6
:100D4000002243F644030292C4F202031A6843F6F7
:100D5000004442F480421A601A68C4F2010402F4AA
:100D600080420292029A28F003024FF6084C224475
:100D7000CFF6FF7C52F80C3007F00C060F25B5407B
:100D8000AB43019D05FA06F6334342F80C30A268E6
:100D90004B6842EA090643F60C4CDD0258BF22EAD2
:100DA0000906A660C4F2010CDCF800209D0242EAAC
:100DB000090658BF22EA0906CCF8006062689D0364
:100DC00042EA090658BF22EA090666602268DB0388
:100DD00042EA090658BF22EA0906266058E703B02E
:100DE000BDE8F08F002A08BF090481617047000048
:100DF00040F20420C2F200000068704740F2140084
:100E000040F20421C2F20000C2F2000100780A6838
:100E1000104408607047000080B543F60040C4F2FB
:100E20000200016841F400710160016841F48061D1
:100E30000160016841F480710160032000F078F8DE
:100E40000F2000F005F800F02BF8002080BD000016
:100E5000B0B540F21402C2F2000240F20C01127866
:100E6000C2F200014FF47A730968B3FBF2F2044650
:100E7000B1FBF2F1084600F027FB0F2C4FF0010503
:100E80000CD858B94FF0FF3021460022002500F061
:100E900023F840F21800C2F2000004602846B0BDFA
:100EA00082B0002043F640010190C4F202014A687A
:100EB00042F480424A604A6802F480420192019AF8
:100EC0000090086840F080500860086800F080508A
:100ED0000090009802B0704710B54EF60C5CCEF250
:100EE000000CDCF80030C3F3022E8EF00704042C53
:100EF00028BF0424BEF103034FF0FF3E0EFA04F4B2
:100F000038BF0023A14399400EFA03F39A431143DB
:100F100000F1604200F00F03090102F56442043B56
:100F20006344002848BF03F10C02117010BD00009B
:100F30004EF60C51CEF200010A684FF6FF031A403C
:100F400060F30A2242F0806040F0FD700860704754
:100F5000002804BF012070472DE9F04143F608083E
:100F6000C4F202080446D8F8F8030D4600F0070062
:100F7000814207D988F8F853D8F8F80300F0070041
:100F8000A84276D12068810717D5410705D5D8F842
:100F9000001041F4E051C8F80010010705D5D8F859
:100FA000001041F46041C8F80010D8F80010A268A1
:100FB00021F0F0011143C8F80010C0073FD1D8F864
:100FC000F80300F00700854207D288F8F853D8F8F4
:100FD000F80300F00700A8424BD12068410707D56D
:100FE000D8F80010E26821F4E0511143C8F800106D
:100FF000000708D5D8F80000216920F4604040EAD5
:10100000C100C8F8000000F07BF8D8F8001043F2E7
:101010001A22C1F30311C0F60002515C40F20C0227
:1010200020FA01F140F21800C2F200000068C2F29A
:1010300000021160FFF70CFF0020BDE8F08160683E
:10104000811E022907D258F8081C89015CBF0120C3
:10105000BDE8F08110E0012807D158F8081C890389
:101060005CBF0120BDE8F08106E058F8081C890744
:1010700002D40120BDE8F081D8F8001021F003016E
:101080000843C8F80000FFF7B3FE064641F2883770
:10109000D8F80000616800F00C00B0EB810F8ED032
:1010A000FFF7A6FE801BB842F2D90320BDE8F0810D
:1010B00040F20C0043F60801C2F20000C4F2020143
:1010C0000068096843F22A22C1F38221C0F60002B7
:1010D000515CC8407047000040F20C0043F6080124
:1010E000C2F20000C4F202010068096843F22A2239
:1010F000C1F34231C0F60002515CC84070470000A5
:1011000010B543F60404C4F202046168C1F381011E
:1011100042F20040C0F2F400DFE801F002030802EE
:1011200010BD47F64000C0F27D1010BD2068216858
:101130002368490247F64001C0F27D1100F03F02EA
:10114000C3F388105CBF42F20041C0F2F401A1FB7E
:1011500000010023FFF7A6F821680222C1F3014134
:1011600002EB4101B0FBF1F010BD0000002804BF0C
:10117000012070472DE9F04182B00446007843F623
:101180000006C007C4F2020649D0B06800F00C00A7
:10119000042809D13068800341D5606800283ED119
:1011A000012002B0BDE8F081B06800F00C00082812
:1011B00002D170684002EDD465683068B5F5A02FA3
:1011C00005D0B5F5803F09D140F480300CE040F403
:1011D00080203060306840F4803005E020F48030BA
:1011E0003060306820F480203060FFF701FE002D71
:1011F000054611D03068800311D4FFF7F9FD401B7C
:101200006428F7D928E100BFFFF7F2FD401B6428EE
:101210004FF0030000F2E08030688003F4D42078BF
:1012200080071BD5B06810F00C0F09D0B06800F033
:101230000C00082840F085807068400200F1818031
:101240003068800703D5E068012840F09A80306854
:10125000216920F0F80040EAC100306020780007E2
:1012600034D42078400746D4A5695DB3B06800F057
:101270000C00082840F09C80012D00F082807068EE
:10128000E16900F480028A427BD1216A00F03F02CA
:101290008A4276D147F6C071626A0140B1EB821F83
:1012A0006FD1A16A4FF6FF73C903994300F440322E
:1012B000A1F580318A4264D1E16A00F07060B0EB40
:1012C000016F5ED1002002B0BDE8F08160690028A6
:1012D0005BD00020C4F247200121C0F8801EFFF738
:1012E00087FD0546706F8007BBD4FFF781FD401B6B
:1012F0000228F7D9B0E0306C5FEAC0080AD40020B9
:101300000190306C40F080503064306C00F08050C0
:101310000190019847F20007C4F200073868C00541
:1013200026D4386840F480703860FFF761FD0546C8
:101330003868C0051CD4FFF75BFD401B0228F7D9B5
:101340008AE0E068002840F20000C4F2472053D051
:1013500001210160FFF74CFD054600BF30688007A2
:101360003FF575AFFFF744FD401B0228F6D973E047
:10137000A568306F052D51D0012D56D140F00100E8
:1013800059E0012002B0BDE8F0810020C4F24720FE
:101390000021C0F8801EFFF72BFD0546706F800707
:1013A0007FF55FAFFFF724FD401B0228F6D953E01D
:1013B0000027C4F2472700203866FFF719FD022DE9
:1013C00005460DD1306880015DD5FFF711FD401B4A
:1013D00002284FF00300F5D902B0BDE8F08100BF4C
:1013E000306880017FF56EAFFFF702FD401B0228D9
:1013F0004FF00300F4D9EFE700210160FFF7F8FC9C
:10140000054600BF306880077FF528AFFFF7F0FC86
:10141000401B02284FF00300F4D9DDE740F0040040
:101420003067306F40F0010005E020F001003067C8
:10143000306F20F004003067FFF7DAFC002D05461E
:1014400041F2883713D000BF306F800712D4FFF706
:10145000CFFC401BB842F7D9032002B0BDE8F081B1
:10146000FFF7C6FC401BB8424FF00300B4D8306F02
:101470008007F5D4B8F1000F3FF5F6AE306C20F0E0
:1014800080503064F0E604F11C052FCD084340EA9B
:101490008210D9034FF6FF729143A1F5803140EAE3
:1014A00005600843706001203866FFF7A1FC044620
:1014B000306880013FF506AFFFF79AFC001B022859
:1014C0004FF00300F4D987E7411E0020B0EB116F05
:1014D0001CBF012070474EF21002CEF20002516094
:1014E0004EF62351CEF20001F0230B7007219060DD
:1014F0001160704790F83C20012A04BF0220704719
:10150000B0B501F108053CCDD1E900CE23F47C5300
:1015100022F470521A432EF4F0431A432CF4E043A1
:101520001A4324F4C0431A432A43C96922F480426F
:10153000036811435964002180F83C100020B0BDBD
:1015400090F83C30012B04BF022070474FEAB202F2
:101550000123032A80F83C3000F2B780F0B5DFE8C1
:1015600002F002812F5E02680024136A156AC4F239
:10157000010425F001051562D2F804E0D2F818C084
:101580008D6823F00203A24243EA050305D1CD682A
:1015900023F00C0325F004052B430D68A24206D16D
:1015A000D1E905472EF44076264346EA070E2CF093
:1015B00073072F43C2F804E097614968516380E0E4
:1015C00002680024136A176AC4F2010427F48077C2
:1015D0001762D2F804E0D2F81CC08D6823F40073BF
:1015E000A24243EA052307D1CD6840F2FF462D020F
:1015F00023F44063B5432B430D68A24206D1D1E9E1
:1016000005462EF44057264347EA061E2CF0730782
:101610002F43C2F804E0D7614968D16351E0026802
:101620000026D2F820C0136AC4F2010623F48053C6
:1016300013625368D4690D68D1F808E0B24204D14E
:101640004E6923F4804343EA861324F4E64646EACF
:1016500005265360D66149682CF4005747EA0E33DB
:1016600011642EE002680024136A176AC4F20104B0
:1016700027F010071762D2F804E0D2F818C08D687E
:1016800023F02003A24243EA051307D1CD686FF08F
:10169000400623F0C00306EA05152B430D68A2425D
:1016A00006D1D1E905462EF44067264347EA860E67
:1016B0002CF4E64747EA0527C2F804E09761496839
:1016C000916313620023BDE8F040002180F83C10D4
:1016D00018467047002804BF0120704710B5044623
:1016E00090F83D0028B9002084F83C00204600F026
:1016F0001FF8022084F83D002068211D00F046FDFF
:10170000012084F8460084F83E0084F83F0084F805
:10171000400084F8410084F8420084F8430084F8D3
:10172000440084F8450084F83D00002010BD00000E
:10173000704700004122082908BF4022042908BF41
:101740003F22002908BF3E22825C012A1CBF0120E3
:101750007047022241B1082909D0042914BF80F83A
:10176000412080F83F2004E080F83E2001E080F82E
:101770004020006801F01F010122036A8A4023EA29
:1017800002010162036A4421C4F201011A43A1F17A
:1017900044039842026203D10A6842F400420A609C
:1017A00040F6FF31C4F2000188420FDCB0F1804FF7
:1017B0001DD040F20041C4F20001884217D040F62B
:1017C0000001C4F20001884211D017E040F6004148
:1017D000C4F2000188420AD044F20001C4F20101BF
:1017E000884204D00021C4F20101884206D18168F8
:1017F00001F00701062904BF00207047016841F08D
:101800000101016000207047002804BF01207047DB
:1018100010B5044690F8410028B9002084F8400033
:10182000204600F021F8242084F841002068C16897
:1018300021F40051C160204600F01AFD20680169C2
:1018400021F490410161416921F02A014161C1689F
:1018500041F40051C16000202021606484F84110EF
:1018600084F84210606310BD80B586B044F2004138
:101870000068C4F20001002288420592CDE90322EB
:101880000292019201D006B080BD43F63000009272
:10189000C4F20200036943F400330361036903F4F3
:1018A00000330093009B0092036843F00103036040
:1018B000006800F00100009000980C2001900220C8
:1018C000CDE90202032004900720059001F5DE30E7
:1018D00001A9FFF7BDF906B080BD00002DE9F04376
:1018E00081B0044690F84100202809D1884600299B
:1018F0004FF0010018BF002A06D101B0BDE8F08307
:10190000022001B0BDE8F0830020606421201D4664
:1019100084F841001646FFF76BFAA684E684A168B6
:101920000646B1F5805F02D1206900284DD0C1463E
:101930004FF00008E08C40B36F1C0BE0B9F1000FD2
:101940001AD019F8010B21684860E08C0138E08456
:10195000E08CD0B1206800680006EFD4002FF9D0E9
:10196000FFF746FA01464FF0030045B3891BA94231
:1019700025D82068C068EDE738F8020B21686FF3BE
:101980005F2048604FF00009DFE7206800684006EC
:1019900014D46F1C04E000BF2068006840060DD41A
:1019A000002FF9D0FFF724FA01464FF0030035B1BC
:1019B000891BA94203D82068C068EDE700202021D8
:1019C00084F8411001B0BDE8F0834FF00009B1E7A1
:1019D000FEE7000010B584B040F20044C4F20204F7
:1019E00020464FF480710022FFF7FCF920464FF4A7
:1019F00000710022FFF7F6F9322001900198411E94
:101A000000280191FAD120464FF480710122FFF79E
:101A1000E9F93220029000BF0298411E002802918D
:101A2000FAD120464FF400710122FFF7DBF9322092
:101A3000039000BF0398411E00280391FAD104B01F
:101A400010BD0000F0B581B040F200440546C4F27C
:101A500002040026322700BFE8B2C20920464FF434
:101A60000071FFF7BFF900970098411E0028009110
:101A7000FAD120464FF480710122FFF7B3F90097A5
:101A80000098411E00280091FAD120464FF4807141
:101A90000022FFF7A7F90136082E4FEA4505DBD1F2
:101AA00020464FF400710122FFF79CF9322000908C
:101AB0000098411E00280091FAD120464FF4807111
:101AC0000122FFF78FF93220009000BF0098411EDD
:101AD00000280091FAD120464FF48071002201B015
:101AE000BDE8F040FFF77EB92DE9F04F9BB00E4600
:101AF00011460546069201F01BFB40F28801C2F236
:101B0000000108600021C4F2F011284601F09CF8A1
:101B10000446002818BF012402D04FF07E5013E085
:101B20000021C4F25C21284601F080F808B10020B1
:101B30000AE00020C4F25C20294601F0F9FA0021F5
:101B4000C4F2C81101F09AF800210490C4F2A01167
:101B5000284601F079F840B90021C4F23421284622
:101B600001F064F820B100200DE04FF07E500AE053
:101B70000020C4F23420294601F0DAFA0021C4F230
:101B8000C81101F07BF800210590C4F2C811284665
:101B900001F05AF868B90021C4F24821284601F042
:101BA00045F848B10021C4F29621284601F03EF8DC
:101BB00048B10027A4B121E00021CCF2C811284689
:101BC00000F0C4FF05E00020C4F29620294601F091
:101BD000AFFA0021C4F2C81101F050F807466CB901
:101BE0000021C4F24821284601F020F840B100212C
:101BF000C4F28C21284601F019F840B1002011E010
:101C00000021CCF2F011284600F0A0FF05E00020F2
:101C1000C4F28C20294601F08BFA0021C4F2A011F5
:101C200001F02CF800210390C4F23421284601F081
:101C30000BF848B90021C4F28C21284600F0F6FFC9
:101C400020B14FF07E500CE000200AE00021CCF2E1
:101C50003421284600F07AFF0021C4F2C81101F0B7
:101C60000DF800210190C4F25C21284600F0ECFF41
:101C7000079548B90021C4F2A021284600F0D6FFFC
:101C800020B14FF07E500CE000200AE00021CCF2A1
:101C90005C21284600F05AFF0021C4F2C81100F070
:101CA000EDFF00210290C4F29631304600F0CCFFE7
:101CB0000546002818BF012502D04FF07E5A17E0D4
:101CC00048F20001C4F20941304600F0AFFF10B104
:101CD0004FF0000A0CE048F20000C4F2094031461F
:101CE00001F026FA0021C4F27A3100F0C7FF8246E3
:101CF0000021C4F24831304600F0A6FF48B9002167
:101D0000C4F2E131304600F091FF28B14FF00009F4
:101D10000EE04FF07E590BE00020C4F2E130314676
:101D200001F006FA0021C4F27A3100F0A7FF8146E3
:101D30000021C4F27A31304600F086FF70B90021EC
:101D4000C4F2FA31304600F071FF50B148F20001A0
:101D5000C4F23B41304600F069FF48B10024ADB108
:101D600022E00021CCF27A31304600F0EFFE06E0AE
:101D700048F20000C4F23B40314601F0D9F900219D
:101D8000C4F27A3100F07AFF04466DB90021C4F242
:101D9000FA31304600F04AFF48B10021C4F22F4129
:101DA000304600F043FF48B14FF0000B12E0002135
:101DB000CCF29631304600F0C9FE05E00020C4F2B6
:101DC0002F40314601F0B4F90021C4F2483100F04F
:101DD00055FF83460021C4F2E131304600F034FF64
:101DE000089648B90021C4F22F41304600F01EFF8A
:101DF00028B14FF07E580EE04FF000080BE00021B4
:101E0000CCF2E131304600F0A1FE0021C4F27A317B
:101E100000F034FF8046089D48F20001C4F20941F9
:101E2000284600F011FF48B90021C4F24841284675
:101E300000F0FCFE20B14FF07E550EE000250CE0D6
:101E400048F20001CCF20941284600F07FFE002153
:101E5000C4F27A3100F012FF0546049E5146304626
:101E600000F0F9FE0028504618BF30461290304668
:101E7000214600F0F0FE0028204618BF304613909F
:101E80003046414600F0E7FE00283846514608BF7C
:101E90004646149600F0DFFE0028504618BF38462C
:101EA00015903846214600F0D6FE0028204618BF7F
:101EB000384616903846414600F0CDFE002808BF4F
:101EC0004746019E51463046179700F0C4FE002851
:101ED0003046214618BFB246CDF860A000F0BBFEE8
:101EE00000283046414618BF3446199400F0B3FE2E
:101EF000002818BFB046059C49462046CDF86880AA
:101F000000F0A9FE0028484618BF20460990204648
:101F1000594600F0A0FE0028584618BF20460A90F7
:101F20002046294600F097FE002808BF2C460B9457
:101F3000039C4946204600F08EFE0028484618BF04
:101F400020460C902046594600F085FE0028584651
:101F500018BF20460D902046294600F07CFE002840
:101F600008BF2C460E94029C4946204600F073FEA2
:101F700000282046594618BFA146CDF83C9000F0F5
:101F80006AFE00282046294618BFA346CDF840B077
:101F900000F061FE00260DF1240B4FF000084FF019
:101FA00000094FF0000A0027002818BF25461195A8
:101FB00012A8845966A085592046294600F0ECFFF6
:101FC000514600F0C3FD82463846214600F0BEFD72
:101FD0005BF8064007462046294600F0DDFF4146F3
:101FE00000F0B4FD80464846214600F0AFFD0436BF
:101FF000242E8146DCD141F26F24C3F68324384677
:10200000214600F013FE05465046394600F036FEE4
:102010000646484621464FF07E57002D08BF3E46F3
:1020200000F004FE04464046494600F027FE002C1E
:1020300018BF07463046394600F088FD4FF07C5106
:1020400000F0AAFF804600210898CCF2FA3100F097
:102050007DFD4DF20A71C3F6A34100F09DFF069984
:1020600001F066F80146079800F070FD054640F261
:10207000641440F28800C2F20004C2F20000266834
:10208000056028464FF07A5100F086FF314600F097
:102090005DFD0021C4F29631064600F0C7FD002127
:1020A00000281CBF0026C4F29636CCF2963130468A
:1020B00000F0D1FD40F2E417C2F2000700281CBF77
:1020C0000026CCF2963639682846266001F030F8B2
:1020D000814640F20800C2F20000046840F20400A9
:1020E000C2F20000006831463D6000F055FF064630
:1020F0002046294600F050FF314600F027FD40F20F
:102100000001C2F20001096804460846494600F091
:1021100043FF214600F01AFD0146404600F03CFF17
:102120004CF20001C4F27941044600F07FFD002822
:102130001CBF4CF20004C4F279442046002100F098
:102140008AFD002818BF002420461BB0BDE8F08F90
:102150009A99993E0000003F0000803F3333333F9F
:102160000000803F0000C03F9A99993F0000C03FA7
:1021700000000040FEE70000FEE70000704700009E
:1021800070470000FEF73ABE70470000B0B540F25D
:10219000FF7E0568C4F2000E40F2000C7045C4F2E8
:1021A000010C0ADD40F60003C4F2000398420DD092
:1021B00060450BD040F6004304E0B0F1804F05D0FD
:1021C00040F20043C4F20003984204D14B6825F06A
:1021D000700243EA02054FF6FF73C4F2000398420F
:1021E00009DC704512DCB0F1804F26D040F200438C
:1021F000C4F200031FE044F2FF33C4F2010398422B
:102200000FDC604519D044F2000312E040F60003F1
:10221000C4F20003984210D040F60043C4F2000319
:1022200009E044F60003C4F20103984205D044F2E9
:102230000043C4F20103984204D1CB6825F44072F4
:1022400043EA02050A688C684B696045C462826291
:1022500002D10969CCF83010026825F0800142F003
:10226000040219430260012242610160B0BD000016
:10227000B0B50446006804F108030ECB05691943A4
:1022800025F440552A4302616269E3691143C2683B
:10229000194349F20C639A431143C1604169A26931
:1022A00021F4407141F20043114340F48062C4F2D2
:1022B00001039A42416102D1FEF70EFF01E0FEF7F1
:1022C000F7FEE1694FF69C7563681922C0F6FF7549
:1022D000B1F5004FA0FB02011CD15A00DB0FFDF746
:1022E000E1FF48F21F51C5F2EB11A0FB01235A098F
:1022F00005F1805302FB0300322303EBC000A0FB77
:1023000001014FF4F87000EA111000EB0210C1F364
:10231000421118E09A009B0FFDF7C4FF48F21F51CD
:10232000C5F2EB11A0FB01235A0902FB0500322381
:1023300003EB0010A0FB0101F02000EA511000EBBC
:102340000210C1F34311084421688860B0BD000049
:10235000FEE7000080B53220FEF766FC302000F07A
:10236000CDF80520FEF760FC302000F0C7F8012012
:10237000FEF75AFC302000F0C1F80A20FEF754FCAA
:10238000202000F0BBF80A20FEF74EFC282000F0C9
:102390001DF80120FEF748FC082000F017F8012086
:1023A000FEF742FC012000F011F80220FEF73CFC91
:1023B000062000F00BF80120FEF736FC0C2000F0A0
:1023C00005F80120BDE88040FEF72EBC70B582B054
:1023D00040F20044C4F20204054620464FF4007166
:1023E0000122FEF7FFFC20464FF480710122FEF728
:1023F000F9FC3220009000BF0098411E0028009197
:10240000FAD120464FF400710022FEF7EBFC322097
:10241000019000BF0198411E00280191FAD1204689
:102420004FF4807100222E0105F0F005FEF7DAFC72
:102430004020FFF707FB05F10C00FFF703FB05F158
:102440000800FFF7FFFA06F10C00C0B2FFF7FAFA36
:1024500006F10800C0B2FFF7F5FA02B0BDE870401F
:10246000FFF7B8BA70B582B040F20044C4F202047B
:10247000054620464FF400710122FEF7B3FC2046CA
:102480004FF480710122FEF7ADFC3220009000BFB6
:102490000098411E00280091FAD120464FF40071A7
:1024A0000022FEF79FFC3220019000BF0198411EE0
:1024B00000280191FAD120464FF4807100222E01AC
:1024C00005F0F005FEF78EFC4020FFF7BBFA05F1A2
:1024D0000D00FFF7B7FA05F10900FFF7B3FA06F1AF
:1024E0000D00C0B2FFF7AEFA06F10900C0B2FFF767
:1024F000A9FA02B0BDE87040FFF76CBAB0B582B07F
:1025000040F20045C4F20205044628464FF400712B
:102510000122FEF767FC28464FF480710122FEF786
:1025200061FC3220009000BF0098411E00280091FD
:10253000FAD128464FF400710022FEF753FC3220F6
:10254000019000BF0198411E00280191FAD1284650
:102550004FF480710022FEF745FC4020FFF772FA2D
:1025600044F00C00FFF76EFA44F00800FFF76AFA37
:1025700002B0BDE8B040FFF72DBA00009AB047F2B4
:102580000008C4F20008FEF747FC07AC20463021E3
:10259000FDF786FF002743F640051797CDE915772D
:1025A000CDE913770697C4F202052868022140F0AE
:1025B000805028602868012600F080500690069818
:1025C0000697D8F8000061F38F30C8F80000D8F8FB
:1025D000000000F440400690069810200B90204622
:1025E00007910A960D97FEF7C1FD0F20CDE913075D
:1025F00013A80021CDE915771797FEF7A9FCFEF780
:102600002FF80797286840F21C1440F40030286027
:102610002868C2F2000400F400300790079844F2E2
:102620000040C4F200004FF496510C2284E883006D
:102630002046C4E90377C4E90527E761FFF7E4F81A
:102640000FF2804120461C226423FFF747F90797C9
:10265000686840F2D40440F0010068606868C2F223
:10266000000400F001000790079808F510409F2132
:1026700084E88300802040F2E732A0612046C4E96C
:102680000327FFF727F86020139013A920460022A4
:10269000CDE91877CDE91677CDE91477FEF750FF2D
:1026A0004FF480400E9007A920460D97CDE90B7797
:1026B000CDE90977CDE90777FEF71CFF2046002119
:1026C000FFF738F80797686808F5304140F48070E4
:1026D0006860686800F480700790079840F28C008A
:1026E000C2F20000077680F82070C762C0E90017C8
:1026F000C0E902770761C661FEF7CAF8FFF72AFE54
:102700008020FFF763FE45200FF2D834C0B2FFF7F8
:10271000A9FEA05D0136102EF8D1C020FFF756FEAD
:1027200053200124F3A500BFC0B2FFF79BFE285D34
:1027300001340C2CF8D14FF47A70FEF775FA0120B1
:10274000FFF744FE08F5CA34204602210122FEF7B5
:1027500049FB2046042100220424FEF743FB08F530
:10276000CC304FF4005101220490FEF73BFB07AE42
:10277000701E40F28C0840F2EA1740F2840640F2E4
:10278000E015C2F20008C2F20007C2F20006C2F26F
:102790000005059009E000BF40F2EA1740F2840608
:1027A0000424C2F20007C2F20006FEF721FB40F249
:1027B000FC11C2F2000109688146401AB0F57A7F27
:1027C000C0F0888040F2FC10C2F2000007ADC0F8F3
:1027D00000904FF0010B4FF0000A40462946CDE92A
:1027E00007ABCDE9094AFDF7B5FF4046FEF78EF984
:1027F00040460A21FEF72AF94FF0000418B9404676
:10280000FEF742F804464046FEF7F2F90420CDF800
:1028100028A00990404629463C80CDE907BBFDF73A
:1028200099FF4046FEF772F940460A21FEF70EF97D
:1028300018B94046FEF728F882464046FEF7D8F918
:102840003C8840F2E810C2F20000A0F800A0204648
:1028500000F026FB0021C4F2C82100F09DFBC34616
:102860004FF20008C4F27F58414600F007FA40F2E8
:10287000EC11C2F200011FFA8AF50860284600F048
:102880000FFB0021C4F27A4100F086FB4146D84696
:1028900000F0F4F94FF47A7304FB03F144F20504F9
:1028A000C0F20044A1FB041205FB03F1A1FB0413D9
:1028B00040F2F01130609009C2F20001086040F26D
:1028C000800140F2E0159809C2F200010424C2F22E
:1028D0000005086040F2F410C2F200000068A9EBA5
:1028E0000000B0F5FA7F15D340F21000C2F20000EC
:1028F000026840F2EC10C2F200003168006840F259
:10290000F413C2F20003C3F80090FFF7EDF800F0F3
:10291000ABFA286040F2F810C2F200000068A9EBA0
:102920000000B0F57A7F25D340F2D401C2F2000155
:1029300040F2F81228680968C2F20002C2F800905A
:10294000002400224863B0F5AF7FD8BF0124C8BF80
:102950000122049F4FF400413846FEF743FA3846FF
:1029600040F2EA174FF400512246C2F20007042455
:10297000FEF738FA40F20020C2F200000068A9EB2E
:102980000000B0F5FA7FFFF410AF286840F2002194
:10299000C2F20001C1F80090C0EB001140F22152D8
:1029A000CE00C8F2343240F2F01B56FB02F2C2F203
:1029B000000B02EBC102DBF8005046F2676A5312CB
:1029C000C6F2666A03EBD27755FB0AF2931003EB6B
:1029D000D27202EB8203A5EB43034DF20155CDF217
:1029E000EC1556FB05F640F2800B06EBC101C2F276
:1029F000000B4E13DBF8004006EBD17957FB0AF1D0
:102A00008E1006EBD171CDE9004040F2681401EB65
:102A10008101C2F20004A7EB410B204638A1CDF89A
:102A20000890CDF80CB0FDF7B5FC82B240F21C1056
:102A3000C2F2000021466423FEF750FF8020FFF71A
:102A4000C5FC40F2F010C2F20000006840F28003C2
:102A500050FB0AF18A1002EBD172C2F2000302EBC2
:102A600082011F68A0EB410307A82EA10097FDF784
:102A700091FC9DF81C0040B1059E00BFC0B2FFF75D
:102A8000F1FCB07801360028F8D1C020FFF79EFC99
:102A900040F2E015C2F200052A6807A826A14B46BD
:102AA000CDF800B0FDF776FC9DF81C0000283FF43F
:102AB00073AE059CC0B2FFF7D5FCA07801340028A6
:102AC000F8D169E60D0A3D3D3D2045434F2D475263
:102AD000494420475541524449414E203D3D3D0D1A
:102AE0000A00000045434F2D475249442053595393
:102AF00054454D005374617274696E672E2E2E001A
:102B0000543A25642E256443204C3A25644C7820A1
:102B100050574D3A256420563A25642E2564560DAB
:102B20000A000000543A25642E256443204C3A25BF
:102B3000644C78202000000050574D3A2564205600
:102B40003A25642E256456202000000090EA010FEB
:102B500048BF81F0004100F1F282421A3CBF801A66
:102B600089184FEAD052A2EBD1534FF07F4C1CEAA8
:102B7000410F18BF9CEA026F00F03B804FF0004C01
:102B80004CEA00204CEA012121FA03FC10EB0C0C6A
:102B90001ED202F1FF325FEA1C2040EBC25038BF68
:102BA00070471CF07F0F4FEA400C18BFBCF17F4FFD
:102BB00038BF7047C3F12003994008BF20F00100DF
:102BC000BCF17F4F38BF7047A0F1C04000F0ABBAF6
:102BD0004FEA3C00000A40EBC25028BF1CF0FF0F38
:102BE0004FEA400CE6D018BFBCF17F4F38BF7047AA
:102BF000EAE79CEA026F05D010EA5C0F08BF00F01C
:102C00000040704710B500F048FA00BF64FBBE3EBC
:102C100010B500F0F5F80CBF0120002010BD10B574
:102C200000F0EEF814BF0120002010BD10B500F038
:102C30004BF98CBF0120002010BD10B500F044F905
:102C40002CBF0120002010BD10B500F071F994BF19
:102C50000120002010BD10B500F06AF934BF01203A
:102C6000002010BD401058BFC0F14040491058BF6F
:102C7000C1F140418142EFF3008070474FF47F0C77
:102C80001CEAD0121EBF1CEAD11392EA0C0F93EA81
:102C90000C0F00F0858090EA010F48BF42F480726B
:102CA00040F4000C41F400002CF07F4120F07F4004
:102CB00000B5A2EB030281420FF2081CACEB504EB0
:102CC0009EF800E0C0F100004FEA4E0E00FB0EFC43
:102CD00038BF49004FEA2C1C0CFB0EF34FEACE1E06
:102CE0000EEB635E4FEA112C0EFB0CFC4FEAC12188
:102CF0004FEA1C5300FB031102F5FA024FEA112CB4
:102D00000EFB0CFC4FEA01314FEADC4C00FB0C11CE
:102D100042EB2242C14228BF09184CEB03335DF855
:102D200004EB10EB410143EBC250B2F57C0F38BF0E
:102D3000704729D512F0F00F1CBF00F1C04000F021
:102D400000407047008182838485868788898B8CC8
:102D50008D8E8F919293959697999A9C9D9FA0A204
:102D6000A3A5A7A8AAACAEB0B2B3B5B7B9BCBEC054
:102D7000C2C5C7C9CCCED1D4D7D9DCDFE2E6E9ECF5
:102D8000F0F3F7FAFE0000004FEA400C0CF1807CF3
:102D9000BCF17E4F28BF7047B0F1C04000F0C3B90E
:102DA0000CEAD11390EA010F48BF42F480726245E9
:102DB00038BF634507D213F47F0F16D080EA0100B5
:102DC00000F00040704710B500F067F9097EFC3E46
:102DD00000F005B880EA010000F00040704780EA8A
:102DE000010000F0004000F09EB912F47F0F04BF14
:102DF0000248704780EA010000F095B90000C07FEA
:102E000050EA010C00F113801CF5000F58BFBCF50F
:102E1000000F01D48842704707D710F5000F58BF44
:102E200011F5000F15D488427047894270471CF590
:102E3000000F04D5BCF5000FF7D5814270474FF065
:102E4000807C1CEB400F38BF1CEB410F01D281424C
:102E5000704710B500F021F9922449004FF000505E
:102E60004FF08051FFF7FEBE41000B0ED3F19E02E2
:102E700008D950F400034FEA032323FA02F048BFB5
:102E80004042704710B500F008F900BF4992248015
:102E9000002070476FF0004282EA20007047000077
:102EA000B0FA80F310FA03F2C3F19D030AD0D905FA
:102EB00001EB1220530638BF704700F1010008BF34
:102EC00020F001007047000050EA010C00F113806F
:102ED0001CF5000F58BFBCF5000F01D488427047A5
:102EE00007D710F5000F58BF11F5000F15D4884211
:102EF0007047894270471CF5000F04D5BCF5000FE0
:102F0000F7D5814270474FF0807C1CEB400F38BFF3
:102F10001CEB410F01D28142704710B500F0BDF8A3
:102F2000922449004FF080504FF00051FFF79ABEB5
:102F300050EA010C00F113801CF5000F58BFBCF5DE
:102F4000000F01D48842704707D710F5000F58BF13
:102F500011F5000F15D488427047894270471CF55F
:102F6000000F04D5BCF5000FF7D5814270474FF034
:102F7000807C1CEB400F38BF1CEB410F01D281421B
:102F8000704710B500F089F8922449004FF00050C6
:102F90004FF08051FFF766BE4FF47F0C1CEAD01251
:102FA0001EBF1CEAD11392EA0C0F93EA0C0F00F03B
:102FB000478090EA010F48BF42F480724FF0004C06
:102FC0004CEA00204CEA012102EB0302A0FB0113B2
:102FD000A2F50002002918BF43F001035B0028BFDF
:102FE0004FEA330342EB22425FEA132C4CEBC25010
:102FF0002EBFBCEB436FB2F57C0F70474FEA036CFA
:10300000BCF1004F08BF20F00100B2F57C0F38BFC3
:1030100070470BD582F0FF0212F5803FC8BF7047A2
:1030200000F1C040D8BF00F00040704700F5000C30
:103030005FEA4C0C48BF7047B0F1C04000F073B875
:103040000CEAD11390EA010F48BF42F48072624546
:1030500038BF634504D280EA010000F000407047A9
:1030600010B500F01AF800BF8900013E00F007B863
:1030700000F009B85FEA410C5FEA1C6C08D080EAF6
:10308000010000F050B85FEA400C5FEA1C6CF6D11A
:103090004FF00040A0F5800070470EF1020E2EF0B8
:1030A000030E5EF8044B244204D44FEA4102B2F10D
:1030B0007F4F11D84FEA4003B3F17F4F0CD80ED1A8
:1030C0004FEAD07C0CEB4C0C0CF1020CB2F17F4FB0
:1030D00008BF4CEBD17C04E04FF0080C01E04FEA54
:1030E000D17C0CEB4C0324FA03F404F00704B4F194
:1030F000040C06D20EEB840CBDE810404CF0010C21
:103100006047DFE80CF0070802024FF00040A0F52E
:10311000800010BD0846420018BFD2F1807288BFFF
:1031200000F0004010BDFF2141EAD050C0057047BB
:1031300090EA010F48BF81F000413FF50EAD421A01
:1031400004D882F00042A0EB020011444FEAD052B2
:10315000A2EBD1534FF07F4C1CEA410F18BF9CEA01
:10316000026F4AD04FF0004C4CEA00204CEA01219B
:1031700021FA03FCB0EB0C0C0FD412F0FE0F36D08A
:103180005FEA4C001DD5001240EBC25038BF7047BB
:103190001CF03F0F18BF70470BE05FEA1C20A2F144
:1031A000010240EBC25038BF70471CF07F0F18BFC0
:1031B0007047C3F12003994014BF401E20F0010066
:1031C00070474FEA1223800808BF7047B0FA80FCAE
:1031D000A2EB0C02CCF1280C60FA0CF093EA122F4F
:1031E00004BF00EBC25070474FEAC3707047130A28
:1031F0005FEADC1008BF7047F6E79CEA026F04D074
:1032000010EA5C0F08BF0020704710B5FFF745FFBC
:1032100040DFF63E81F000407047000000000000F3
:103220000000010203040607080900000000010273
:1032300003040000583200080000002020000000B5
:10324000F80100087832000820000020E80700009C
:1032500018020008000000000000803F0AD7A33CCD
:10326000000080400024F4000000484201000000FB
:08327000100000000000000046
:040000050800019559
:00000001FF
